:100000000C9434000C94CE010C94CE010C94CE01CF
:100010000C94CE010C94CE010C94CE010C94CE0124
:100020000C94CE010C94CE010C94CE010C94CE0114
:100030000C94CE010C94CE010C94CE010C94CE0104
:100040000C94CE010C94CE010C94CE010C94CE01F4
:100050000C94CE010C94CE010C94CE010C94CE01E4
:100060000C94CE010C94CE0111241FBECFEFD8E02A
:10007000DEBFCDBF0E9440000C946C01F894FFCF0E
:100080000E940E0110E050C00E94EA007C010E9414
:10009000FC00EC01812F0E94C9010E9460010E94B6
:1000A0003C010E9448010E9454010E949F01882344
:1000B00051F060E080E00E9498000E943C01CE0177
:1000C0000E941E0122C00E94A5018823F1F060E079
:1000D00080E00E9498000E944801CE010E941E010B
:1000E00014C00E94D1009C0136952795369527951E
:1000F000ABE7B4E10E942D01969587950E94C90156
:100100000E945401CE010E941E010E94AB01811188
:10011000E8CFC7010E941E0160E080E00E949800C5
:10012000C7010E941E011F5F1A3008F4ADCFAACF8D
:100130006623D9F0813019F40E9477010895823046
:1001400021F481E00E9481010895833021F481E04F
:100150000E948B01089581E00E94770181E00E9456
:10016000810181E00E948B010895813021F480E0BB
:100170000E9477010895823021F480E00E9481017D
:100180000895833021F480E00E948B01089580E07F
:100190000E94770180E00E94810180E00E948B0133
:0201A0000895C0
:1001A20082E480937C0087EC80937A0080917A00CD
:1001B20084FFFCCF80E180937A0080917800909157
:1001C20079009C01220F331F820F931F815C9109DA
:0201D20008958E
:1001D40080E480937C0087EC80937A0080917A009D
:1001E40084FFFCCF80E180937A0080917800909125
:0401F40079000895F1
:1001F80081E480937C0087EC80937A0080917A0078
:1002080084FFFCCF80E180937A0080917800909100
:0402180079000895CC
:10021C0082E084B988E087B98AB18F778AB98AB1CC
:10022C008F7E8AB98FE68AB98BB18F608BB90895AE
:10023C0020E030E008C0EFE9FFE03197F1F700C0B3
:0E024C0000002F5F3F4F28173907A8F30895D1
:10025A00A29FB001B39FC001A39F700D811D1124FD
:0E026A00911DB29F700D811D1124911D0895EC
:100278000E94B101882321F080E00E94770108954F
:0802880081E00E947701089556
:100290000E94B701882321F080E00E948101089527
:0802A00081E00E948101089534
:1002A8000E94BD01882321F080E00E948B010895FF
:0802B80081E00E948B01089512
:1002C0000E94C301882321F080E00E9495010895D7
:0802D00081E00E9495010895F0
:1002D800EC010E94D3010E94D201CE010E94D401F8
:0602E800CE010E94D001CE
:1002EE00882321F085B1826085B9089585B18D7F0F
:0402FE0085B9089521
:10030200882321F08BB180648BB908958BB18F7BE8
:040312008BB9089506
:10031600882321F08BB180628BB908958BB18F7DD4
:040326008BB90895F2
:10032A00882321F088B1886088B9089588B1877FC9
:04033A0088B90895E1
:0C033E00189B02C081E0089580E0089543
:0C034A004F9B02C081E0089580E0089500
:0C0356004C9B02C081E0089580E00895F7
:0C036200299B02C081E0089580E008950E
:0C036E005E9B02C081E0089580E00895CD
:0C037A005D9B02C081E0089580E00895C2
:0C038600439B02C081E0089580E00895D0
:0A0392009BB19077892B8BB9089579
:04039C000C940000BD
:0403A0000E943E0079
:0203A4000895BA
:0203A6000895B8
:0203A8000895B6
:00000001FF
