:100000000C9434000C94EF000C94EF000C94EF006F
:100010000C94EF000C94EF000C94EF000C94EF00A4
:100020000C94EF000C94EF000C94EF000C94EF0094
:100030000C94EF000C94EF000C94EF000C94EF0084
:100040000C94EF000C94EF000C94EF000C94EF0074
:100050000C94EF000C94EF000C94EF000C94EF0064
:100060000C94EF000C94EF0011241FBECFEFD8E0EA
:10007000DEBFCDBF0E9440000C94B800F894FFCFC3
:100080000E949C00DD24D394C0E0D0E000E010E0AA
:10009000E12CF12C8FEFE81AF80A0E94D700882390
:1000A00051F098E8E91693E1F90628F00E94AC00B7
:1000B000E12CF12C06C00E94D700811102C00E94E1
:1000C000C3000F5F1F4F0E94DD00882359F00436E4
:1000D000110540F0DD0DD43651F0DD2369F000E06C
:1000E00010E012C00E94DD00882359F00DC0DD240D
:1000F000DA9400E010E008C0DD24D39400E010E0C2
:1001000003C0DD24D394D0E0CF5FC43608F0C0E054
:10011000CD1720F481E00E94CD0003C080E00E9452
:10012000CD000E94E3008111FCCF8FE891E00197A0
:08013000F1F700C00000AECFA2
:1001380082E084B988E087B98AB18F778AB98AB1B1
:100148008F7E8AB98FE68AB98BB18F608BB9089593
:100158000E94E900882321F080E00E94C3000895EE
:0801680081E00E94C30008952C
:10017000EC010E94F4000E94F300CE010E94F50001
:06018000CE010E94F10017
:10018600882321F085B1826085B9089585B18D7F78
:0401960085B908958A
:10019A00882321F08BB180648BB908958BB18F7B52
:0401AA008BB9089570
:0C01AE00189B02C081E0089580E00895D5
:0C01BA004F9B02C081E0089580E0089592
:0C01C6004C9B02C081E0089580E0089589
:0C01D200299B02C081E0089580E00895A0
:0401DE000C9400007D
:0401E2000E943E0039
:0201E60008957A
:0201E800089578
:0201EA00089576
:00000001FF
