:100000000C943D000C94F0020C94F0020C94F0025D
:100010000C94F0020C94F0020C94F0020C94F00298
:100020000C94F0020C94F0020C94F0020C94F00288
:100030000C94F0020C94F0020C94F0020C94F00278
:100040000C94F0020C94F0020C94F0020C94F00268
:100050000C94F0020C94F0020C94F0020C94F00258
:100060000C94F0020C94F0020100010480010401E0
:10007000180005EE0118011C800011241FBECFEFEF
:10008000D8E0DEBFCDBFE8E6F0E040E017C0B591B4
:10009000A59135912591059107FD0CC0959185910C
:1000A000EF01F92FE82F05900D92A217B307D9F7AA
:1000B000FE0104C01D92A217B307E1F7E937F40768
:0E00C00031F70E949B020C94A602F894FFCF29
:1000CE00CF92DF92EF92FF920F931F93CF93DF9316
:1000DE00CDB7DEB764970FB6F894DEBF0FBECDBFB7
:1000EE00C82E84E1E4E0F1E0DE01119601900D925C
:1000FE008A95E1F780E090E00E944C02CB010E94CD
:10010E00DA0284EF91E00E947D0260E080E00E94BE
:10011E006A01D12C51C00E94E70163E070E00E9499
:10012E0024028C010F5F1F4F61E0802F0E946A0135
:10013E00ED2DF0E0EE0FFF1F81E090E08C0F9D1F84
:10014E00E80FF91FE080F18064EE72E0C7010E94B3
:10015E00C801882399F08C2D90E00817190739F003
:10016E004CE251E063E081E00E94A3014CC04CE2FE
:10017E0051E063E082E00E94A3011DC060E0802F89
:10018E000E946A0164EE72E0C7010E94C8018823D2
:10019E0011F28C2D90E00817190739F046E950E05E
:1001AE0063E081E00E94A3012EC046E950E063E0C7
:1001BE0082E00E94A301D39499E09D1508F0ABCF85
:1001CE0000E01FC060E080E00E946A014CE251E056
:1001DE0061E0812F0E94A3011F5F01C011E0143066
:1001EE0088F313E00BC060E080E00E946A014CE2ED
:1001FE0051E061E0812F0E94A30111501111F3CF44
:10020E000F5F033058F364960FB6F894DEBF0FBE3F
:10021E00CDBFDF91CF911F910F91FF90EF90DF90A7
:04022E00CF900895D0
:10023200CF93DF93C82F84EF91E00E947D0260E0AC
:1002420080E00E946A016AEE72E08CE291E00E9414
:10025200C80181110CC061E08C2F0E946A016AEE14
:1002620072E08CE291E00E94C801882319F0C0E09C
:10027200D0E029C060E08C2F0E946A016AEE72E031
:100282008CE291E00E94C8018111F1CF61E00E94ED
:100292006A016AEE72E084EF91E00E94C80188234D
:1002A20071F2E5CF60E080E00E946A0188EC90E0A4
:1002B2000E947D0261E080E00E946A0188EC90E089
:1002C2000E947D022196C330D10564F3DF91CF9164
:0202D20008958D
:1002D4006623D9F0813019F40E94BC02089582305B
:1002E40021F481E00E94C6020895833021F481E064
:1002F4000E94D002089581E00E94BC0281E00E9425
:10030400C60281E00E94D0020895813021F480E089
:100314000E94BC020895823021F480E00E94C6024B
:100324000895833021F480E00E94D002089580E093
:100334000E94BC0280E00E94C60280E00E94D002BB
:0203440008951A
:10034600FF920F931F93CF93DF93D82FF62E8A0138
:1003560060E080E00E946A01C0E00FC061E08D2F7E
:100366000E946A01C8010E947D0260E08D2F0E94F2
:100376006A01C8010E947D02CF5FCF1578F3DF9135
:0A038600CF911F910F91FF90089591
:10039000EF92FF920F931F93CF93DF938C017B011A
:1003A000C0E0D0E009C0F7010995811109C081E0E2
:1003B00090E00E947D022196C017D107A0F380E053
:0E03C000DF91CF911F910F91FF90EF90089564
:1003CE00E8E1F1E020813181428153816DE27FE7E6
:1003DE0085E99CE40E946D02DC01CB010196A11D12
:1003EE00B11DE8E1F1E080839183A283B383F1E153
:0E03FE00B695A79597958795FA95D1F708952E
:10040C00CF93C1E015C061E08C2F0E946A0164EEAD
:10041C0072E084EF91E00E94C80181110CC060E091
:10042C008C2F0E946A0184EF91E00E947D02CF5FC5
:0C043C00C43048F3E6CF8C2FCF91089518
:1004480097FB072E16F4009407D077FD09D00E9479
:10045800380207FC05D03EF4909581959F4F08958A
:08046800709561957F4F089526
:10047000AA1BBB1B51E107C0AA1FBB1FA617B707CA
:1004800010F0A61BB70B881F991F5A95A9F78095E6
:080490009095BC01CD01089517
:10049800FC010FB6F894A0E0B1E06D917D918D91CB
:1004A8009C910FBE309721F0608371838283938380
:0204B8000895A5
:1004BA0082E084B988E087B98AB18F778AB98AB12C
:1004CA008F7E8AB98FE68AB98BB18F608BB908950E
:1004DA00DB018F939F930E94B102BF91AF91A29FBC
:1004EA00800D911DA39F900DB29F900D1124089528
:1004FA0020E030E008C0EFE9FFE03197F1F700C0F3
:0E050A0000002F5F3F4F28173907A8F3089510
:10051800A29FB001B39FC001A39F700D811D11243C
:0E052800911DB29F700D811D1124911D08952B
:100536000E945D020E940602C82F0E9419018C2F9C
:060546000E946700F7CFE0
:10054C00EC010E94F5020E94F402CE010E94F60218
:06055C00CE010E94F20234
:100562000E948C02A59F900DB49F900DA49F800DB8
:06057200911D1124089503
:10057800882321F085B1826085B9089585B18D7F82
:0405880085B9089594
:10058C00882321F08BB180648BB908958BB18F7B5C
:04059C008BB908957A
:1005A000882321F08BB180628BB908958BB18F7D48
:0405B0008BB9089566
:1005B4000197A0E0B0E0E8E1F1E080839183A283B9
:0405C400B383089560
:0C05C800189B02C081E0089580E00895B7
:0C05D4004C9B02C081E0089580E0089577
:0405E0000C94000077
:0405E4000E9465000C
:0205E800089574
:0205EA00089572
:0205EC00089570
:1005EE0020035802F40190012C01C800AF009600C0
:0405FE007D00640018
:00000001FF
