S01E000074696D65725F616E645F6973725F65786572636973652E73726563EF
S11300000C9434000C943E000C943E000C943E007E
S11300100C943E000C943E000C943E000C943E0064
S11300200C943E000C943E000C943E000C943E0054
S11300300C943E000C943E000C943E000C943E0044
S11300400C943E000C943E000C943E000C943E0034
S11300500C943E000C943E000C943E000C943E0024
S11300600C943E000C943E0011241FBECFEFD8E048
S1130070DEBFCDBF0E9448000C944B000C940000DE
S113008016BC82E084BD84E085BD8DE787BD0895FC
S10D00900E944000FFCFF894FFCF58
S9030000FC
