:100000000C9434000C9474000C9474000C947400E0
:100010000C9474000C9474000C9474000C94740090
:100020000C9474000C9474000C9474000C94740080
:100030000C9474000C9474000C9474000C94740070
:100040000C9474000C9474000C9474000C94740060
:100050000C9474000C9474000C9474000C94740050
:100060000C9474000C94740011241FBECFEFD8E0E0
:10007000DEBFCDBF0E944F000C945E00F894FFCF0E
:1000800020E030E008C0EFE9FFE03197F1F700C071
:0E00900000002F5F3F4F28173907ACF308958B
:10009E000E9471000E94690084EF91E00E9440006E
:0E00AE000E946D0084EF91E00E944000F3CFAD
:1000BC00EC010E9479000E947800CE010E947A0027
:0600CC00CE010E94760047
:0800D20085B1806285B9089533
:0800DA0085B18F7D85B9089501
:0600E20080E284B90895DC
:0400E8000C94000074
:0400EC000E943E0030
:0200F000089571
:0200F20008956F
:0200F40008956D
:00000001FF
