:100000000C9434000C9451000C9451000C94510049
:100010000C9451000C9451000C9451000C9451001C
:100020000C9451000C9451000C9451000C9451000C
:100030000C9451000C9451000C9451000C945100FC
:100040000C9451000C9451000C9451000C945100EC
:100050000C9451000C9451000C9451000C945100DC
:100060000C9451000C94510011241FBECFEFD8E026
:10007000DEBFCDBF11E0A0E0B1E0E0E9F5E002C0F5
:1000800005900D92AE39B107D9F721E0AEE9B1E0A4
:1000900001C01D92A73AB207E1F70E9462010C94D9
:1000A000C6020C940000806480937C0087EC8093EF
:1000B0007A0080917A0084FFFCCFEAE7F0E080814B
:1000C00080618083809178009091790008950F93EA
:1000D0001F93CF93DF93D82F162F042FC0E014C0A7
:1000E000C11309C0EC2FF0E0E050FF4F60E08081C9
:1000F0000E94150108C0EC2FF0E0E050FF4F61E0D6
:1001000080810E941501CF5FC33050F36D2F617065
:1001100082E00E9415016D2F627083E00E9415013C
:100120006D2F647084E00E9415016D2F687085E06A
:100130000E941501602F86E00E941501DF91CF918A
:100140001F910F9108958091A20160919E0141E05D
:10015000861340E0E62FF0E0E156FE4F80810E94DA
:10016000670080919E018F5F80939E01833010F025
:1001700010929E010895EFE9F1E08083618342834C
:10018000238308956130D1F490E0FC01EE0FFF1F4E
:10019000EE0FFF1FEE0FFF1FE81BF90BEB5FFE4F8B
:1001A000A281B3812C9181E090E0068002C0880F8B
:1001B000991F0A94E2F7822B8C93089561111AC05B
:1001C00090E0FC01EE0FFF1FEE0FFF1FEE0FFF1F71
:1001D000E81BF90BEB5FFE4FA281B3812C9181E00C
:1001E00090E0068002C0880F991F0A94E2F780957C
:1001F00082238C93089590E0FC01EE0FFF1FEE0F19
:10020000FF1FEE0FFF1FE81BF90BEB5FFE4FA481F2
:10021000B5812C9130E0068002C0359527950A946F
:10022000E2F781E020FF80E008956130D1F490E0B2
:10023000FC01EE0FFF1FEE0FFF1FEE0FFF1FE81B6D
:10024000F90BEB5FFE4FA081B1812C9181E090E032
:10025000068002C0880F991F0A94E2F7822B8C93C4
:10026000089590E0FC01EE0FFF1FEE0FFF1FEE0F51
:10027000FF1FE81BF90BEB5FFE4FA081B1812C91B2
:1002800081E090E0068002C0880F991F0A94E2F78F
:10029000809582238C93089510928000E1E8F0E02D
:1002A00080818860808387EC90E0909389008093C0
:1002B0008800808182608083EFE6F0E08081826048
:1002C0008083089521E040E061E080E00E94BB006F
:1002D0000E944C010E94F0017894C12CD12C76012F
:1002E000DFEF1FEFC0E001E0809104019091050174
:1002F000892B31F010920501109204010E94A30095
:100300008091A3019091A401A091A501B091A601B3
:1003100080339547A105B10520F0013011F4C1E00B
:1003200000E080910301882339F0CC2329F00E945A
:10033000DB01D82F109203011D1781F023E04D2F10
:100340006AE08AE00E94BB00C090A301D090A401A3
:10035000E090A501F090A6011D2FC0E0C11112C0D0
:100360008091A3019091A401A091A501B091A60153
:100370008C199D09AE09BF0988399A43A105B105B9
:1003800008F0C1E0CC2309F4AFCFD13009F0ACCFF5
:1003900081E00E9453000E940D025C0180E090E029
:1003A0000E94FB00892B11F067E001C061E0C501EC
:1003B0000E941A0299CFCF93C0E00DC0EC2FF0E05D
:1003C000E756FE4F80810E94FB00882319F081E0F0
:1003D0008C0F04C0CF5FC43088F385E0CF910895BF
:1003E000CF93C0E009C0EC2FF0E0E756FE4F60E08D
:1003F00080810E94C200CF5FC430A8F3C0E009C072
:10040000EC2FF0E0EF56FE4F61E080810E94C200C9
:10041000CF5FC830A8F3CF9108959C01A8E8B3E15D
:100420000E94B7022FEF30E040E050E00E949502BA
:10043000C90108950F931F93CF93DF93689FA00185
:10044000699F500D1124413187E2580708F43FC0DD
:100450009A01329522952F7023273F702327A7E416
:10046000B3E00E94B70296958795969587959695E5
:100470008795F82F8A011695079516950795169575
:1004800007959801A5ECB0E20E94B702EC01D29565
:10049000C295CF70CD27DF70CD27EC2F28EE33E04B
:1004A000C29FC001C39F900DD29F900D11249A014D
:1004B000281B390BADECBCEC0E94B70296958795D2
:1004C0009695879596958795482F22E025C09A01A5
:1004D000369527953695279536952795A5ECB0E264
:1004E0000E94B702929582958F7089279F70892705
:1004F000F82F8A0116950795169507959801ABE791
:10050000B4E10E94B702EC01D695C795EC2F94E6B2
:10051000C99F4019112421E06E2F8F2F0E94BB002C
:10052000DF91CF911F910F910895A1E21A2EAA1B7E
:10053000BB1BFD010DC0AA1FBB1FEE1FFF1FA21793
:10054000B307E407F50720F0A21BB30BE40BF50B90
:10055000661F771F881F991F1A9469F76095709519
:10056000809590959B01AC01BD01CF010895A29F9C
:10057000B001B39FC001A39F700D811D1124911D77
:10058000B29F700D811D1124911D0895F894FFCF25
:100590000B0C0D01012B002A002900002B002A0062
:1005A0002900012B002A002900022B002A00290023
:1005B000032B002A002900042B002A002900052B08
:1005C000002A002900062B002A0029000725002404
:1005D000002300002500240023000125002400231F
:1005E000000225002400230003250024002300042A
:1005F00025002400230005280027002600002800ED
:1006000027002600012800270026000228002700D6
:1006100026000328002700260004280027002600C3
:0E0620000502030405060B0C0D0708090A006D
:00000001FF
