:100000000C9434000C9451000C9451000C94510049
:100010000C9451000C9451000C9451000C9451001C
:100020000C9451000C9451000C9451000C9450010C
:100030000C9451000C9451000C9451000C945100FC
:100040000C9451000C9451000C9451000C945100EC
:100050000C9451000C9451000C9451000C945100DC
:100060000C9451000C94510011241FBECFEFD8E026
:10007000DEBFCDBF11E0A0E0B1E0EEE7FBE002C0E3
:1000800005900D92AE39B107D9F721E0AEE9B1E0A4
:1000900001C01D92AA3AB207E1F70E94AF010C9489
:1000A000BD050C940000806480937C0087EC8093F5
:1000B0007A0080917A0084FFFCCFEAE7F0E080814B
:1000C00080618083809178009091790008950F93EA
:1000D0001F93CF93DF93D82F162F042FC0E014C0A7
:1000E000C11309C0EC2FF0E0E050FF4F60E08081C9
:1000F0000E94190108C0EC2FF0E0E050FF4F61E0D2
:1001000080810E941901CF5FC33050F36D2F617061
:1001100082E00E941901D1FB662760F983E00E940A
:100120001901D2FB662760F984E00E941901D3FB14
:10013000662760F985E00E941901602F86E00E9421
:100140001901DF91CF911F910F910895CF93DF9304
:10015000EC018091A101688141E0861340E0E62F27
:10016000F0E0E256FE4F80810E94670088818F5F39
:100170008883833008F01882DF91CF910895EEE9EB
:10018000F1E0808361834283238308956130D1F459
:1001900090E0FC01EE0FFF1FEE0FFF1FEE0FFF1FA1
:1001A000E81BF90BEB5FFE4FA281B3812C9181E03C
:1001B00090E0068002C0880F991F0A94E2F7822B14
:1001C0008C93089561111AC090E0FC01EE0FFF1F9F
:1001D000EE0FFF1FEE0FFF1FE81BF90BEB5FFE4F4B
:1001E000A281B3812C9181E090E0068002C0880F4B
:1001F000991F0A94E2F7809582238C93089590E0EA
:10020000FC01EE0FFF1FEE0FFF1FEE0FFF1FE81B9D
:10021000F90BEB5FFE4FA481B5812C9130E0068095
:1002200002C0359527950A94E2F781E020FF80E02F
:1002300008956130D1F490E0FC01EE0FFF1FEE0F46
:10024000FF1FEE0FFF1FE81BF90BEB5FFE4FA081B6
:10025000B1812C9181E090E0068002C0880F991F47
:100260000A94E2F7822B8C93089590E0FC01EE0F44
:10027000FF1FEE0FFF1FEE0FFF1FE81BF90BEB5FD9
:10028000FE4FA081B1812C9181E090E0068002C0F8
:10029000880F991F0A94E2F7809582238C93089522
:1002A0001F920F920FB60F9211248F939F93AF93CB
:1002B000BF938091A5019091A601A091A701B09153
:1002C000A8010196A11DB11D8093A5019093A601DF
:1002D000A093A701B093A8018091A4018F5F8093A0
:1002E000A4018091A2019091A30101969093A30192
:1002F0008093A2018091A401873328F01092A40179
:1003000081E0809304018091A2019091A3010A975A
:1003100038F01092A3011092A20181E080930301B2
:10032000BF91AF919F918F910F900FBE0F901F9033
:10033000189510928000E1E8F0E080818860808369
:1003400087EC90E0909389008093880080818260A0
:100350008083EFE6F0E08081826080830895CF9310
:10036000DF9300D01F92CDB7DEB71A8219821B82AD
:1003700020E043E061E080E00E94BF000E9499011C
:100380000E94E6027894E12CF12C412C512C320190
:10039000812C912C54011FEF0FEFDD24D394809119
:1003A000040190910501892B41F0109205011092F2
:1003B0000401CE0103960E94A6008091A5019091B0
:1003C000A601A091A701B091A8018035934CA10589
:1003D000B10540F081E0D81205C081E090E09A8339
:1003E0008983D12C80910301882349F089819A81E6
:1003F000892B29F00E94D102182F109203010117B6
:1004000089F023E0412F60E080E00E94BF008090EF
:10041000A5019090A601A090A701B090A8011A8212
:100420001982012F89819A81892BA9F48091A501D4
:100430009091A601A091A701B091A80188199909EE
:10044000AA09BB098C3D9540A105B10520F081E0CA
:1004500090E09A83898389819A81892B09F49FCFBF
:100460001230F1F118F4113041F099CF133009F442
:1004700064C0143009F48EC092CF81E00E94530012
:10048000480E591E611C711C8FEFE81AF80AE1141E
:1004900021E0F20609F083CFD301C201689413F87A
:1004A000B695A795979587951694D1F7BC01CD0180
:1004B000882799270E9474032B013C0180E090E07B
:1004C0000E94FF00892B11F067E001C061E0C201CA
:1004D0000E94B303E12CF12C412C512C32015FCF4F
:1004E00081E00E945300480E591E611C711C8FEF61
:1004F000E81AF80AE11421E0F20609F050CFD3011E
:10050000C201689413F8B695A795979587951694A8
:10051000D1F7BC01CD01882799270E947403DC0123
:10052000CB016AE471E00E9483030E946C04E12C19
:10053000F12C412C512C320132CF81E00E9453002A
:10054000480E591E611C711C8FEFE81AF80AE1145D
:1005500021E0F20609F023CFD301C201689413F819
:10056000B695A795979587951694D1F7BC01CD01BF
:10057000882799270E947403DC01CB0168EE70E89C
:100580000E9483030E946C04E12CF12C412C512C1D
:10059000320105CF23E044E064E084E00E94BF0024
:1005A000FECECF93C0E00DC0EC2FF0E0E756FE4F3B
:1005B00080810E94FF00882319F081E08C0F04C025
:1005C000CF5FC43088F385E0CF910895CF9360E08A
:1005D00080E00E94C600C0E009C0EC2FF0E0E756C2
:1005E000FE4F60E080810E94C600CF5FC430A8F358
:1005F000C0E009C0EC2FF0E0EF56FE4F61E08081D3
:100600000E94C600CF5FC830A8F3CF910895AC0117
:100610009C01ADECBCEC0E94A30596958795969540
:100620008795969587959C01220F331F880F991FF8
:10063000880F991F880F991F820F931F9A01281BFB
:10064000390BC901263028F0421B5109465F5F4F24
:1006500006C02FEF280F243010F4481B51099A01CF
:10066000ADECBCEC0E94A305969587959695879571
:10067000969587950895CF92DF92EF92FF920F9310
:100680001F93CF93DF938C017B01EA01690188817D
:1006900090E00E94070388838A3029F41882F701CA
:1006A00080818F5F8083F70180818A3029F41082F6
:1006B000F80180818F5F8083F80180818A3059F44E
:1006C00081E08083F6018081833011F4825001C083
:1006D0008F5FF6018083DF91CF911F910F91FF9083
:1006E000EF90DF90CF9008959B01AC01A8E8B3E1B3
:1006F0000E94B2052FEF3FE340E050E00E948105E9
:10070000CA01B9010895CF93FC01E73883E1F807E6
:1007100020F5E339F10548F4683E80E8780729F0D0
:1007200081E08093A901C4E603C01092A901CAE048
:100730009B01DF010E94A3059B01AC01AC2FB0E03F
:100740000E94B20528E833E12E1B3F0B40E050E049
:100750000E948105CA01B90104C06FEF7FEF80E0FC
:1007600090E0CF9108950F931F93CF93DF93689FED
:10077000A001699F500D1124413187E2580708F408
:1007800056C09A01329522952F7023273F70232758
:10079000A7E4B3E00E94A305969587959695879563
:1007A00096958795E82F8A011695079516950795D2
:1007B000169507959801A5ECB0E20E94A305EC01FF
:1007C000D295C295CF70CD27DF70CD279E01ADECBD
:1007D000BCEC0E94A305969587959695879596956E
:1007E00087959C01220F331F880F991F880F991F2F
:1007F000880F991F820F931FFC2FF81B28EE33E000
:10080000C29FC001C39F900DD29F900D11249A01E9
:10081000281B390B3695279536952795ABE7B4E11C
:100820000E94A30596958795482F21E04CC09A0118
:10083000369527953695279536952795A5ECB0E200
:100840000E94A305929582958F7089279F708927B2
:10085000E82F8A0116950795169507959801ABE73D
:10086000B4E10E94A305EC01D695C7959E01ADECBD
:10087000BCEC0E94A30596958795969587959695CD
:1008800087959C01220F331F880F991F880F991F8E
:10089000880F991F820F931FFC2FF81B24E62C9FB3
:1008A000C0012D9F900D11249A01281B390BADEC2E
:1008B000BCEC0E94A305969587959695879596958D
:1008C0008795482F20E06F2F8E2F0E94BF00DF9169
:1008D000CF911F910F9108954F925F926F927F92E7
:1008E0008F929F92AF92BF92CF92DF92EF92FF9240
:1008F0001F93CF93DF93CDB7DEB728970FB6F89449
:10090000DEBF0FBECDBF6B017C0119821A821B8234
:100910001C82DC01CB010197A109B109803492440A
:10092000AF40B10538F023E040E060E080E00E9495
:10093000BF00D1C08091A901882359F188EEC81663
:1009400083E0D806E104F10458F481E0898310E0E3
:100950000F2EF4E68F2E912CA12CB12CF02D6AC015
:1009600020E1C21627E2D206E104F10458F482E045
:10097000898311E00F2EF4E68F2E912CA12CB12C3F
:10098000F02D58C023E040E060E080E00E94BF000E
:10099000A2C088EEC81683E0D806E104F10458F43A
:1009A00081E0898310E00F2EFAE08F2E912CA12C8C
:1009B000B12CF02D3FC020E1C21627E2D206E1049F
:1009C000F10460F483E0898311E00F2EF8EE8F2E9E
:1009D000F3E09F2EA12CB12CF02D2CC080EAC8167C
:1009E00086E8D80681E0E806F104A8F020E4C21603
:1009F00022E4D2062FE0E206F104B8F481E0898314
:100A000011E00F2EF0EA8F2EF6E89F2EAA24A39471
:100A1000B12CF02D0FC011E00F2EF0E18F2EF7E278
:100A20009F2EA12CB12CF02D05C011E0812C912C12
:100A300054018394C501B4012AE030E040E050E065
:100A40000E9481052D833E834F83588784E6881654
:100A50009104A104B10459F0C501B40128EE33E0BA
:100A600040E050E00E94810529013A0104C0412C78
:100A7000512C32014394C701B601A50194010E9493
:100A800081052A832D813E814F8158850E948105F1
:100A90002B83C701B6012D813E814F8158850E946D
:100AA0008105A30192010E9481052C83112369F025
:100AB0009E012F5F3F4FAE014C5F5F4FBE016D5FE8
:100AC0007F4FCE0102960E943B0329814C816B81AE
:100AD0008A810E94BF0028960FB6F894DEBF0FBE31
:100AE000CDBFDF91CF911F91FF90EF90DF90CF901E
:100AF000BF90AF909F908F907F906F905F904F903E
:100B00000895A1E21A2EAA1BBB1BFD010DC0AA1F4E
:100B1000BB1FEE1FFF1FA217B307E407F50720F066
:100B2000A21BB30BE40BF50B661F771F881F991FE1
:100B30001A9469F760957095809590959B01AC012A
:100B4000BD01CF010895A29FB001B39FC001A39F33
:100B5000700D811D1124911DB29F700D811D1124F6
:100B6000911D08950E94A305A59F900DB49F900D1F
:0E0B7000A49F800D911D11240895F894FFCFCD
:100B7E000D0C0B01012B002A002900002B002A006E
:100B8E002900012B002A002900022B002A0029002F
:100B9E00032B002A002900042B002A002900052B14
:100BAE00002A002900062B002A0029000725002410
:100BBE00002300002500240023000125002400232B
:100BCE000002250024002300032500240023000436
:100BDE0025002400230005280027002600002800F9
:100BEE0027002600012800270026000228002700E3
:100BFE0026000328002700260004280027002600D0
:0E0C0E000502030405060B0C0D0708090A0079
:00000001FF
