:100000000C9434000C9417010C9417010C941701F4
:100010000C9417010C9417010C9417010C94170100
:100020000C9417010C9417010C9417010C941701F0
:100030000C9417010C9417010C9417010C941701E0
:100040000C9417010C9417010C9417010C941701D0
:100050000C9417010C9417010C9417010C941701C0
:100060000C9417010C94170111241FBECFEFD8E098
:10007000DEBFCDBF0E9440000C94E800F894FFCF93
:10008000CF93DF93CDB7DEB762970FB6F894DEBF9C
:100090000FBECDBFFE01319682E1DF011D928A9530
:1000A000E9F781E089838C838E8389878B878C87AE
:1000B0008D878E870E94C900F12C2EC08F2D90E075
:1000C000FC01EE0FFF1FE80FF91F81E090E08C0F9D
:1000D0009D1FE80FF91FE10FF11D80811F5F61E097
:1000E000811101C060E0812F0E94900001C010E0EA
:1000F000133020F300E010E00AC00E9411018111CA
:10010000FCCF81E090E00E94D9000F5F1F4F083EB6
:1001100093E0190790F3F394A5E0AF1540F7CCCF27
:100120006623D9F0813019F40E94F30008958230DB
:1001300021F481E00E94FD000895833021F481E0E4
:100140000E940701089581E00E94F30081E00E946F
:10015000FD0081E00E9407010895813021F480E0D4
:100160000E94F3000895823021F480E00E94FD0097
:100170000895833021F480E00E940701089580E013
:100180000E94F30080E00E94FD0080E00E940701D1
:020190000895D0
:1001920082E084B988E087B98AB18F778AB98AB157
:1001A2008F7E8AB98FE68AB98BB18F608BB9089539
:1001B20020E030E008C0EFE9FFE03197F1F700C03E
:0E01C20000002F5F3F4F28173907A8F308955C
:1001D000EC010E941C010E941B01CE010E941D0126
:0601E000CE010E9419018E
:1001E600882321F085B1826085B9089585B18D7F18
:0401F60085B908952A
:1001FA00882321F08BB180648BB908958BB18F7BF2
:04020A008BB908950F
:10020E00882321F08BB180628BB908958BB18F7DDD
:04021E008BB90895FB
:0C022200189B02C081E0089580E0089560
:04022E000C9400002C
:040232000E943E00E8
:02023600089529
:02023800089527
:02023A00089525
:00000001FF
