:100000000C9434000C940F010C940F010C940F010C
:100010000C940F010C940F010C940F010C940F0120
:100020000C940F010C940F010C940F010C940F0110
:100030000C940F010C940F010C940F010C940F0100
:100040000C940F010C940F010C940F010C940F01F0
:100050000C940F010C940F010C940F010C940F01E0
:100060000C940F010C940F0111241FBECFEFD8E0A8
:10007000DEBFCDBF0E9440000C94CF00F894FFCFAC
:100080000E94BF00C0E0D12CF12CE12C00E0D0E0B8
:1000900010E001C0C0E00E94F800882339F011117F
:1000A00005C081E0D827CF5F11E006C00E94F800AC
:1000B000811102C0111110E00E94FE008823C1F0DE
:1000C000011116C087EC90E00197F1F700C0000025
:1000D0000E94FE00882329F081E0E826CF5F01E03E
:1000E00014C087EC90E00197F1F700C000000DC04C
:1000F0000E94FE00811109C0002339F08FEA94E0CC
:100100000197F1F700C0000000E00E94040188237D
:10011000C9F0F11017C087EC90E00197F1F700C02B
:1001200000000E940401882331F081E0D826CF5FCF
:10013000FF24F39414C087EC90E00197F1F700C01E
:1001400000000DC00E940401811109C0FF2039F098
:100150008FEA94E00197F1F700C00000F12C8D2F99
:100160000E94DA008E2D0E94E4008D2D0E94EE0088
:0E0170008C2F0E940A01CA3008F08CCF8CCF71
:10017E0082E084B988E087B98AB18F778AB98AB16B
:10018E008F7E8AB98FE68AB98BB18F608BB908954D
:10019E00EC010E9414010E941301CE010E94150170
:0601AE00CE010E941101C8
:1001B400882321F085B1826085B9089585B18D7F4A
:0401C40085B908955C
:1001C800882321F08BB180648BB908958BB18F7B24
:0401D8008BB9089542
:1001DC00882321F08BB180628BB908958BB18F7D10
:0401EC008BB908952E
:0C01F000189B02C081E0089580E0089593
:0C01FC004F9B02C081E0089580E0089550
:0C0208004C9B02C081E0089580E0089546
:0A0214009BB19077892B8BB90895F8
:04021E000C9400003C
:040222000E943E00F8
:02022600089539
:02022800089537
:02022A00089535
:00000001FF
