:100000000C9434000C94F3000C94F3000C94F30063
:100010000C94F3000C94F3000C94F3000C94F30094
:100020000C94F3000C94F3000C94F3000C94F30084
:100030000C94F3000C94F3000C94F3000C94F30074
:100040000C94F3000C94F3000C94F3000C94F30064
:100050000C94F3000C94F3000C94F3000C94F30054
:100060000C94F3000C94F30011241FBECFEFD8E0E2
:10007000DEBFCDBF0E9479000C94C400F894FFCF7E
:100080006623D9F0813019F40E94CF0008958230A0
:1000900021F481E00E94D9000895833021F481E0A9
:1000A0000E94E300089581E00E94CF0081E00E9459
:1000B000D90081E00E94E3000895813021F480E0BE
:1000C0000E94CF000895823021F480E00E94D90080
:1000D0000895833021F480E00E94E300089580E0D9
:1000E0000E94CF0080E00E94D90080E00E94E300DF
:0200F000089571
:1000F2000E94A5000E9493008C01C1E00CC061E047
:100102008C2F0E944000C8010E94B50060E080E090
:100112000E944000CF5FC43090F30E94ED00811135
:04012200FCCFE8CF57
:1001260080E480937C0087EC80937A0080917A004B
:1001360084FFFCCF80E180937A00809178009091D3
:04014600790008959F
:10014A0082E084B988E087B98AB18F778AB98AB19F
:10015A008F7E8AB98FE68AB98BB18F608BB9089581
:10016A0020E030E008C0EFE9FFE03197F1F700C086
:0E017A0000002F5F3F4F28173907A8F30895A4
:10018800EC010E94F8000E94F700CE010E94F900DD
:06019800CE010E94F500FB
:10019E00882321F085B1826085B9089585B18D7F60
:0401AE0085B9089572
:1001B200882321F08BB180648BB908958BB18F7B3A
:0401C2008BB9089558
:1001C600882321F08BB180628BB908958BB18F7D26
:0401D6008BB9089544
:0C01DA00189B02C081E0089580E00895A9
:0401E6000C94000075
:0401EA000E943E0031
:0201EE00089572
:0201F000089570
:0201F20008956E
:00000001FF
