:100000000C9434000C945C010C945C010C945C0125
:100010000C945C010C945C010C945C010C945C01EC
:100020000C945C010C945C010C945C010C945C01DC
:100030000C945C010C945C010C945C010C945C01CC
:100040000C945C010C945C010C945C010C945C01BC
:100050000C945C010C945C010C945C010C945C01AC
:100060000C945C010C945C0111241FBECFEFD8E00E
:10007000DEBFCDBF0E9440000C943301F894FFCF47
:10008000CF93DF93CDB7DEB72A970FB6F894DEBFD4
:100090000FBECDBF0E940501FE0131968AE0DF014F
:1000A0001D928A95E9F7F12C13C00F2D10E00E94E4
:1000B000F300000F111FE1E0F0E0EC0FFD1FE00F77
:1000C000F11F918380838AE090E00E941501F394F0
:1000D000B4E0BF1550F780E020E030E00FC0E82F1B
:1000E000F0E0EE0FFF1F41E050E04C0F5D1FE40F0A
:1000F000F51F40815181240F351F8F5F853078F3C4
:10010000ADECBCEC0E942401969587959695879559
:10011000863F53E0950768F061E081E00E94BA00F5
:1001200060E082E00E94BA0060E083E00E94BA00D2
:100130001CC08930944068F460E081E00E94BA00FD
:1001400061E082E00E94BA0060E083E00E94BA00B1
:100150000CC060E081E00E94BA0060E082E00E9492
:10016000BA0061E083E00E94BA0084E690E00E9459
:04017000150192CF14
:100174006623D9F0813019F40E943E01089582303B
:1001840021F481E00E9448010895833021F481E044
:100194000E945201089581E00E943E0181E00E9484
:1001A400480181E00E9452010895813021F480E0E9
:1001B4000E943E010895823021F480E00E944801AB
:1001C4000895833021F480E00E945201089580E074
:1001D4000E943E0180E00E94480180E00E9452019A
:0201E40008957C
:1001E60080E480937C0087EC80937A0080917A008B
:1001F60084FFFCCF80E180937A0080917800909113
:0402060079000895DE
:10020A0082E084B988E087B98AB18F778AB98AB1DE
:10021A008F7E8AB98FE68AB98BB18F608BB90895C0
:10022A0020E030E008C0EFE9FFE03197F1F700C0C5
:0E023A0000002F5F3F4F28173907A8F30895E3
:10024800A29FB001B39FC001A39F700D811D11240F
:0E025800911DB29F700D811D1124911D0895FE
:10026600EC010E9461010E946001CE010E946201C0
:06027600CE010E945E01B2
:10027C00882321F085B1826085B9089585B18D7F81
:04028C0085B9089593
:10029000882321F08BB180648BB908958BB18F7B5B
:0402A0008BB9089579
:1002A400882321F08BB180628BB908958BB18F7D47
:0402B4008BB9089565
:0402B8000C940000A2
:0402BC000E943E005E
:0202C00008959F
:0202C20008959D
:0202C40008959B
:00000001FF
